{
  "contractName": "Adopted",
  "abi": [
    {
      "inputs": [],
      "stateMutability": "nonpayable",
      "type": "constructor"
    },
    {
      "anonymous": false,
      "inputs": [
        {
          "indexed": false,
          "internalType": "address",
          "name": "uploader",
          "type": "address"
        },
        {
          "indexed": false,
          "internalType": "uint256",
          "name": "petId",
          "type": "uint256"
        },
        {
          "indexed": false,
          "internalType": "string",
          "name": "petText",
          "type": "string"
        },
        {
          "indexed": false,
          "internalType": "string",
          "name": "petImg",
          "type": "string"
        }
      ],
      "name": "getPetData",
      "type": "event"
    },
    {
      "inputs": [],
      "name": "owner",
      "outputs": [
        {
          "internalType": "address",
          "name": "",
          "type": "address"
        }
      ],
      "stateMutability": "view",
      "type": "function"
    },
    {
      "inputs": [
        {
          "internalType": "uint256",
          "name": "id",
          "type": "uint256"
        }
      ],
      "name": "getPet",
      "outputs": [
        {
          "internalType": "string",
          "name": "",
          "type": "string"
        },
        {
          "internalType": "string",
          "name": "",
          "type": "string"
        },
        {
          "internalType": "address",
          "name": "",
          "type": "address"
        }
      ],
      "stateMutability": "view",
      "type": "function"
    },
    {
      "inputs": [
        {
          "internalType": "string",
          "name": "text",
          "type": "string"
        },
        {
          "internalType": "string",
          "name": "img",
          "type": "string"
        }
      ],
      "name": "addPet",
      "outputs": [],
      "stateMutability": "payable",
      "type": "function"
    }
  ],
  "bytecode": "0x608060405234801561001057600080fd5b506000600181905550336000806101000a81548173ffffffffffffffffffffffffffffffffffffffff021916908373ffffffffffffffffffffffffffffffffffffffff160217905550610a86806100686000396000f3fe6080604052600436106100345760003560e01c806359d55194146100395780638da5cb5b14610078578063932ce2f2146100a3575b600080fd5b34801561004557600080fd5b50610060600480360381019061005b91906105dc565b6100bf565b60405161006f93929190610714565b60405180910390f35b34801561008457600080fd5b5061008d610272565b60405161009a91906106a6565b60405180910390f35b6100bd60048036038101906100b89190610564565b610296565b005b60608060006001548410610108576040517f08c379a00000000000000000000000000000000000000000000000000000000081526004016100ff90610779565b60405180910390fd5b600060026000868152602001908152602001600020905080600201816003018260000160009054906101000a900473ffffffffffffffffffffffffffffffffffffffff1682805461015890610889565b80601f016020809104026020016040519081016040528092919081815260200182805461018490610889565b80156101d15780601f106101a6576101008083540402835291602001916101d1565b820191906000526020600020905b8154815290600101906020018083116101b457829003601f168201915b505050505092508180546101e490610889565b80601f016020809104026020016040519081016040528092919081815260200182805461021090610889565b801561025d5780601f106102325761010080835404028352916020019161025d565b820191906000526020600020905b81548152906001019060200180831161024057829003601f168201915b50505050509150935093509350509193909250565b60008054906101000a900473ffffffffffffffffffffffffffffffffffffffff1681565b67016345785d8a000034146102e0576040517f08c379a00000000000000000000000000000000000000000000000000000000081526004016102d790610759565b60405180910390fd5b600060026000600154815260200190815260200160002090508281600201908051906020019061031192919061043c565b508181600301908051906020019061032a92919061043c565b50338160000160006101000a81548173ffffffffffffffffffffffffffffffffffffffff021916908373ffffffffffffffffffffffffffffffffffffffff16021790555060015481600101819055507f48cf4f3a518e592cc8efa89ff4842535d23b04aad3ba6c2aa442846dbbf5c6273360015485856040516103b094939291906106c1565b60405180910390a1600160008154809291906103cb906108ec565b919050555060008054906101000a900473ffffffffffffffffffffffffffffffffffffffff1673ffffffffffffffffffffffffffffffffffffffff166108fc349081150290604051600060405180830381858888f19350505050158015610436573d6000803e3d6000fd5b50505050565b82805461044890610889565b90600052602060002090601f01602090048101928261046a57600085556104b1565b82601f1061048357805160ff19168380011785556104b1565b828001600101855582156104b1579182015b828111156104b0578251825591602001919060010190610495565b5b5090506104be91906104c2565b5090565b5b808211156104db5760008160009055506001016104c3565b5090565b60006104f26104ed846107be565b610799565b90508281526020810184848401111561050e5761050d6109c7565b5b610519848285610847565b509392505050565b600082601f830112610536576105356109c2565b5b81356105468482602086016104df565b91505092915050565b60008135905061055e81610a39565b92915050565b6000806040838503121561057b5761057a6109d1565b5b600083013567ffffffffffffffff811115610599576105986109cc565b5b6105a585828601610521565b925050602083013567ffffffffffffffff8111156105c6576105c56109cc565b5b6105d285828601610521565b9150509250929050565b6000602082840312156105f2576105f16109d1565b5b60006106008482850161054f565b91505092915050565b6106128161080b565b82525050565b6000610623826107ef565b61062d81856107fa565b935061063d818560208601610856565b610646816109d6565b840191505092915050565b600061065e601c836107fa565b9150610669826109e7565b602082019050919050565b6000610681600b836107fa565b915061068c82610a10565b602082019050919050565b6106a08161083d565b82525050565b60006020820190506106bb6000830184610609565b92915050565b60006080820190506106d66000830187610609565b6106e36020830186610697565b81810360408301526106f58185610618565b905081810360608301526107098184610618565b905095945050505050565b6000606082019050818103600083015261072e8186610618565b905081810360208301526107428185610618565b90506107516040830184610609565b949350505050565b6000602082019050818103600083015261077281610651565b9050919050565b6000602082019050818103600083015261079281610674565b9050919050565b60006107a36107b4565b90506107af82826108bb565b919050565b6000604051905090565b600067ffffffffffffffff8211156107d9576107d8610993565b5b6107e2826109d6565b9050602081019050919050565b600081519050919050565b600082825260208201905092915050565b60006108168261081d565b9050919050565b600073ffffffffffffffffffffffffffffffffffffffff82169050919050565b6000819050919050565b82818337600083830152505050565b60005b83811015610874578082015181840152602081019050610859565b83811115610883576000848401525b50505050565b600060028204905060018216806108a157607f821691505b602082108114156108b5576108b4610964565b5b50919050565b6108c4826109d6565b810181811067ffffffffffffffff821117156108e3576108e2610993565b5b80604052505050565b60006108f78261083d565b91507fffffffffffffffffffffffffffffffffffffffffffffffffffffffffffffffff82141561092a57610929610935565b5b600182019050919050565b7f4e487b7100000000000000000000000000000000000000000000000000000000600052601160045260246000fd5b7f4e487b7100000000000000000000000000000000000000000000000000000000600052602260045260246000fd5b7f4e487b7100000000000000000000000000000000000000000000000000000000600052604160045260246000fd5b600080fd5b600080fd5b600080fd5b600080fd5b6000601f19601f8301169050919050565b7f706c656173652067697665206d6f6e657920666f722075706c6f616400000000600082015250565b7f4e6f207375636820706574000000000000000000000000000000000000000000600082015250565b610a428161083d565b8114610a4d57600080fd5b5056fea264697066735822122095865fcf4e1d52387e9360daac2e120fb6d2600917100fc9cbed83b213a1e37e64736f6c63430008070033",
  "immutableReferences": {},
  "source": "// SPDX-License-Identifier: MIT\r\npragma solidity ^0.8.7;\r\n\r\ncontract Adopted{\r\n    address public owner;\r\n    uint private counter;\r\n\r\n    constructor(){\r\n        counter = 0;\r\n        owner = msg.sender;\r\n    }\r\n    // \r\n    struct pet{\r\n        // \r\n        address uploader;\r\n        uint petId;\r\n        string petText;\r\n        string petImg;\r\n    }\r\n\r\n    event getPetData(\r\n        address uploader,\r\n        uint petId,\r\n        string petText,\r\n        string petImg\r\n    );\r\n\r\n    mapping(uint256 => pet) pets;\r\n\r\n    function getPet(uint256 id)public view returns(string memory,string memory,address){\r\n        require(id < counter,\"No such pet\");\r\n        pet storage item = pets[id];\r\n        return (item.petText, item.petImg,item.uploader);\r\n\r\n    }\r\n    function addPet(string memory text,string memory img)public payable{\r\n        require(msg.value == (0.1 ether),\"please give money for upload\");\r\n        pet storage newPet = pets[counter];\r\n        newPet.petText = text;\r\n        newPet.petImg = img;\r\n        newPet.uploader = msg.sender;\r\n        newPet.petId = counter;\r\n\r\n        emit getPetData(msg.sender,counter,text,img);\r\n        counter++;\r\n        //        owner\r\n        payable(owner).transfer(msg.value);\r\n\r\n\r\n    }\r\n\r\n}\r\n",
  "sourcePath": "C:\\Users\\13988\\Desktop\\homework\\Adopted\\contracts\\Adopted.sol",
  "compiler": {
    "name": "solc",
    "version": "0.8.7+commit.e28d00a7.Emscripten.clang"
  },
  "schemaVersion": "3.4.7",
  "updatedAt": "2022-07-18T08:37:56.261Z",
  "devdoc": {
    "kind": "dev",
    "methods": {},
    "version": 1
  },
  "userdoc": {
    "kind": "user",
    "methods": {},
    "version": 1
  }
}